{
  "address": "0xB7401564Db89c1402704FCA219f80c4174FCb652",
  "abi": [
    {
      "inputs": [],
      "stateMutability": "nonpayable",
      "type": "constructor"
    },
    {
      "inputs": [
        {
          "internalType": "uint256",
          "name": "repoId",
          "type": "uint256"
        }
      ],
      "name": "addFundToRepository",
      "outputs": [],
      "stateMutability": "payable",
      "type": "function"
    },
    {
      "inputs": [
        {
          "internalType": "uint256",
          "name": "repoId",
          "type": "uint256"
        },
        {
          "internalType": "address",
          "name": "poolManager",
          "type": "address"
        },
        {
          "internalType": "string",
          "name": "username",
          "type": "string"
        },
        {
          "internalType": "uint256",
          "name": "githubId",
          "type": "uint256"
        }
      ],
      "name": "addPoolManager",
      "outputs": [],
      "stateMutability": "nonpayable",
      "type": "function"
    },
    {
      "inputs": [],
      "name": "admin",
      "outputs": [
        {
          "internalType": "address",
          "name": "",
          "type": "address"
        }
      ],
      "stateMutability": "view",
      "type": "function"
    },
    {
      "inputs": [
        {
          "internalType": "uint256",
          "name": "repoId",
          "type": "uint256"
        },
        {
          "internalType": "uint256",
          "name": "issueId",
          "type": "uint256"
        },
        {
          "internalType": "uint256",
          "name": "reward",
          "type": "uint256"
        }
      ],
      "name": "allocateIssueReward",
      "outputs": [],
      "stateMutability": "nonpayable",
      "type": "function"
    },
    {
      "inputs": [
        {
          "internalType": "address",
          "name": "_user",
          "type": "address"
        }
      ],
      "name": "checkUserType",
      "outputs": [
        {
          "internalType": "string",
          "name": "",
          "type": "string"
        },
        {
          "internalType": "address",
          "name": "",
          "type": "address"
        }
      ],
      "stateMutability": "view",
      "type": "function"
    },
    {
      "inputs": [
        {
          "internalType": "uint256",
          "name": "",
          "type": "uint256"
        }
      ],
      "name": "contributorAddresses",
      "outputs": [
        {
          "internalType": "address",
          "name": "",
          "type": "address"
        }
      ],
      "stateMutability": "view",
      "type": "function"
    },
    {
      "inputs": [
        {
          "internalType": "address",
          "name": "",
          "type": "address"
        }
      ],
      "name": "contributors",
      "outputs": [
        {
          "internalType": "string",
          "name": "username",
          "type": "string"
        },
        {
          "internalType": "uint256",
          "name": "githubId",
          "type": "uint256"
        },
        {
          "internalType": "string",
          "name": "worldId",
          "type": "string"
        },
        {
          "internalType": "address",
          "name": "wallet",
          "type": "address"
        }
      ],
      "stateMutability": "view",
      "type": "function"
    },
    {
      "inputs": [
        {
          "internalType": "uint256",
          "name": "repoId",
          "type": "uint256"
        },
        {
          "internalType": "uint256",
          "name": "issueId",
          "type": "uint256"
        },
        {
          "internalType": "address payable",
          "name": "contributorAddress",
          "type": "address"
        }
      ],
      "name": "distributeReward",
      "outputs": [],
      "stateMutability": "nonpayable",
      "type": "function"
    },
    {
      "inputs": [
        {
          "internalType": "address",
          "name": "_wallet",
          "type": "address"
        }
      ],
      "name": "getContributor",
      "outputs": [
        {
          "components": [
            {
              "internalType": "string",
              "name": "username",
              "type": "string"
            },
            {
              "internalType": "uint256",
              "name": "githubId",
              "type": "uint256"
            },
            {
              "internalType": "string",
              "name": "worldId",
              "type": "string"
            },
            {
              "internalType": "address",
              "name": "wallet",
              "type": "address"
            }
          ],
          "internalType": "struct RepoRewards.Contributor",
          "name": "",
          "type": "tuple"
        }
      ],
      "stateMutability": "view",
      "type": "function"
    },
    {
      "inputs": [
        {
          "internalType": "uint256",
          "name": "repoId",
          "type": "uint256"
        },
        {
          "internalType": "uint256[]",
          "name": "issueIds",
          "type": "uint256[]"
        }
      ],
      "name": "getIssueRewards",
      "outputs": [
        {
          "internalType": "uint256[]",
          "name": "",
          "type": "uint256[]"
        }
      ],
      "stateMutability": "view",
      "type": "function"
    },
    {
      "inputs": [
        {
          "internalType": "address",
          "name": "_wallet",
          "type": "address"
        }
      ],
      "name": "getPoolManager",
      "outputs": [
        {
          "components": [
            {
              "internalType": "string",
              "name": "username",
              "type": "string"
            },
            {
              "internalType": "uint256",
              "name": "githubId",
              "type": "uint256"
            },
            {
              "internalType": "string",
              "name": "worldId",
              "type": "string"
            },
            {
              "internalType": "address",
              "name": "wallet",
              "type": "address"
            }
          ],
          "internalType": "struct RepoRewards.PoolManager",
          "name": "",
          "type": "tuple"
        }
      ],
      "stateMutability": "view",
      "type": "function"
    },
    {
      "inputs": [
        {
          "internalType": "uint256",
          "name": "_repoId",
          "type": "uint256"
        }
      ],
      "name": "getRepository",
      "outputs": [
        {
          "internalType": "address[]",
          "name": "",
          "type": "address[]"
        },
        {
          "internalType": "address[]",
          "name": "",
          "type": "address[]"
        },
        {
          "internalType": "uint256",
          "name": "",
          "type": "uint256"
        },
        {
          "components": [
            {
              "internalType": "uint256",
              "name": "issueId",
              "type": "uint256"
            },
            {
              "internalType": "uint256",
              "name": "rewardAmount",
              "type": "uint256"
            },
            {
              "internalType": "string",
              "name": "status",
              "type": "string"
            }
          ],
          "internalType": "struct RepoRewards.Issue[]",
          "name": "",
          "type": "tuple[]"
        }
      ],
      "stateMutability": "view",
      "type": "function"
    },
    {
      "inputs": [
        {
          "internalType": "uint256[]",
          "name": "repoIds",
          "type": "uint256[]"
        }
      ],
      "name": "getRepositoryRewards",
      "outputs": [
        {
          "internalType": "uint256[]",
          "name": "",
          "type": "uint256[]"
        }
      ],
      "stateMutability": "view",
      "type": "function"
    },
    {
      "inputs": [
        {
          "internalType": "string",
          "name": "username",
          "type": "string"
        }
      ],
      "name": "getUserWalletByUsername",
      "outputs": [
        {
          "internalType": "address",
          "name": "",
          "type": "address"
        }
      ],
      "stateMutability": "view",
      "type": "function"
    },
    {
      "inputs": [
        {
          "internalType": "uint256",
          "name": "",
          "type": "uint256"
        }
      ],
      "name": "poolManagerAddresses",
      "outputs": [
        {
          "internalType": "address",
          "name": "",
          "type": "address"
        }
      ],
      "stateMutability": "view",
      "type": "function"
    },
    {
      "inputs": [
        {
          "internalType": "address",
          "name": "",
          "type": "address"
        }
      ],
      "name": "poolManagers",
      "outputs": [
        {
          "internalType": "string",
          "name": "username",
          "type": "string"
        },
        {
          "internalType": "uint256",
          "name": "githubId",
          "type": "uint256"
        },
        {
          "internalType": "string",
          "name": "worldId",
          "type": "string"
        },
        {
          "internalType": "address",
          "name": "wallet",
          "type": "address"
        }
      ],
      "stateMutability": "view",
      "type": "function"
    },
    {
      "inputs": [
        {
          "internalType": "string",
          "name": "username",
          "type": "string"
        },
        {
          "internalType": "uint256",
          "name": "githubId",
          "type": "uint256"
        },
        {
          "internalType": "string",
          "name": "worldId",
          "type": "string"
        },
        {
          "internalType": "string",
          "name": "typeOfUser",
          "type": "string"
        }
      ],
      "name": "registerUser",
      "outputs": [],
      "stateMutability": "nonpayable",
      "type": "function"
    },
    {
      "inputs": [
        {
          "internalType": "uint256",
          "name": "",
          "type": "uint256"
        }
      ],
      "name": "repositories",
      "outputs": [
        {
          "internalType": "uint256",
          "name": "poolRewards",
          "type": "uint256"
        },
        {
          "internalType": "uint256",
          "name": "issueCount",
          "type": "uint256"
        }
      ],
      "stateMutability": "view",
      "type": "function"
    },
    {
      "stateMutability": "payable",
      "type": "receive"
    }
  ],
  "transactionHash": "0xbfd93e805ac670b70aaefe043e0cc40bcb6baca3eb960a93907eb4986f000f9b",
  "args": [],
  "numDeployments": 1,
  "solcInputHash": "29cb2c4a080c331ddf10b0ee965fb7d6",
  "bytecode": "0x608060405234801561001057600080fd5b50600580546001600160a01b03191633179055611f7b806100326000396000f3fe60806040526004361061010d5760003560e01c80638a64e0c411610095578063be27948611610064578063be27948614610344578063c5939b0014610357578063e4b76e9114610377578063f851a44014610397578063fd9c3df1146103b757600080fd5b80638a64e0c4146102b75780638dd08557146102d75780639e77ef99146102f7578063b7bb80f91461032457600080fd5b80633d8270f5116100dc5780633d8270f5146101d957806348a35a8a146101f95780635be08933146102195780635ce13c8014610249578063766527091461026957600080fd5b80631f6d49421461011957806323382609146101525780632de3ad021461017f5780632df24df2146101b757600080fd5b3661011457005b600080fd5b34801561012557600080fd5b506101396101343660046116df565b6103e5565b6040516101499493929190611753565b60405180910390f35b34801561015e57600080fd5b5061017261016d3660046116df565b610526565b60405161014991906117ef565b34801561018b57600080fd5b5061019f61019a3660046118b9565b6106c5565b6040516001600160a01b039091168152602001610149565b3480156101c357600080fd5b506101d76101d23660046118f6565b610887565b005b3480156101e557600080fd5b506101726101f43660046116df565b610a7e565b34801561020557600080fd5b506101d761021436600461192f565b610ae4565b34801561022557600080fd5b5061023961023436600461195b565b610c24565b60405161014994939291906119b8565b34801561025557600080fd5b506101d7610264366004611a63565b610eb6565b34801561027557600080fd5b506102a261028436600461195b565b60026020819052600091825260409091209081015460039091015482565b60408051928352602083019190915201610149565b3480156102c357600080fd5b506101396102d23660046116df565b610ffb565b3480156102e357600080fd5b5061019f6102f236600461195b565b611016565b34801561030357600080fd5b50610317610312366004611b44565b611040565b6040516101499190611b79565b34801561033057600080fd5b506101d761033f366004611bbd565b6110fc565b6101d761035236600461195b565b6112e7565b34801561036357600080fd5b5061019f61037236600461195b565b6113ef565b34801561038357600080fd5b50610317610392366004611c4f565b6113ff565b3480156103a357600080fd5b5060055461019f906001600160a01b031681565b3480156103c357600080fd5b506103d76103d23660046116df565b6114cf565b604051610149929190611c96565b60016020526000908152604090208054819061040090611cc0565b80601f016020809104026020016040519081016040528092919081815260200182805461042c90611cc0565b80156104795780601f1061044e57610100808354040283529160200191610479565b820191906000526020600020905b81548152906001019060200180831161045c57829003601f168201915b50505050509080600101549080600201805461049490611cc0565b80601f01602080910402602001604051908101604052809291908181526020018280546104c090611cc0565b801561050d5780601f106104e25761010080835404028352916020019161050d565b820191906000526020600020905b8154815290600101906020018083116104f057829003601f168201915b505050600390930154919250506001600160a01b031684565b61055a604051806080016040528060608152602001600081526020016060815260200160006001600160a01b031681525090565b6001600160a01b0382166000908152602081905260409081902081516080810190925280548290829061058c90611cc0565b80601f01602080910402602001604051908101604052809291908181526020018280546105b890611cc0565b80156106055780601f106105da57610100808354040283529160200191610605565b820191906000526020600020905b8154815290600101906020018083116105e857829003601f168201915b505050505081526020016001820154815260200160028201805461062890611cc0565b80601f016020809104026020016040519081016040528092919081815260200182805461065490611cc0565b80156106a15780601f10610676576101008083540402835291602001916106a1565b820191906000526020600020905b81548152906001019060200180831161068457829003601f168201915b5050509183525050600391909101546001600160a01b031660209091015292915050565b6000805b6003548110156107bb57826040516020016106e49190611cfa565b604051602081830303815290604052805190602001206000806003848154811061071057610710611d16565b60009182526020808320909101546001600160a01b03168352828101939093526040918201902090516107439201611d2c565b60405160208183030381529060405280519060200120036107a9576000806003838154811061077457610774611d16565b60009182526020808320909101546001600160a01b039081168452908301939093526040909101902060030154169392505050565b806107b381611db8565b9150506106c9565b5060005b60045481101561087e57826040516020016107da9190611cfa565b60405160208183030381529060405280519060200120600160006004848154811061080757610807611d16565b60009182526020808320909101546001600160a01b031683528281019390935260409182019020905161083a9201611d2c565b604051602081830303815290604052805190602001200361086c57600160006004838154811061077457610774611d16565b8061087681611db8565b9150506107bf565b50600092915050565b826108928133611599565b806108a757506005546001600160a01b031633145b6108cc5760405162461bcd60e51b81526004016108c390611dd1565b60405180910390fd5b6000848152600260209081526040808320868452600481019092529091206001810154806109475760405162461bcd60e51b815260206004820152602260248201527f4e6f2072657761726420616c6c6f636174656420666f72207468697320697373604482015261756560f01b60648201526084016108c3565b60008681526004840160205260408120818155600181018290559061096f6002830182611613565b505060038301805490600061098383611df9565b9190505550804710156109d85760405162461bcd60e51b815260206004820152601d60248201527f496e73756666696369656e7420636f6e74726163742062616c616e636500000060448201526064016108c3565b6000856001600160a01b03168260405160006040518083038185875af1925050503d8060008114610a25576040519150601f19603f3d011682016040523d82523d6000602084013e610a2a565b606091505b5050905080610a745760405162461bcd60e51b815260206004820152601660248201527514995dd85c99081d1c985b9cd9995c8819985a5b195960521b60448201526064016108c3565b5050505050505050565b610ab2604051806080016040528060608152602001600081526020016060815260200160006001600160a01b031681525090565b6001600160a01b0382166000908152600160205260409081902081516080810190925280548290829061058c90611cc0565b82610aef8133611599565b80610b0457506005546001600160a01b031633145b610b205760405162461bcd60e51b81526004016108c390611dd1565b600084815260026020819052604090912090810154831115610b845760405162461bcd60e51b815260206004820152601960248201527f496e73756666696369656e7420706f6f6c20726577617264730000000000000060448201526064016108c3565b604080516060810182528581526020808201868152835180850185526009815268185b1b1bd8d85d195960ba1b8184015283850190815260008981526004870190935293909120825181559051600182015591519091906002820190610bea9082611e5f565b505050600381018054906000610bff83611db8565b919050555082816002016000828254610c189190611f1f565b90915550505050505050565b6000818152600260205260408120600381015460609283929091839190839067ffffffffffffffff811115610c5b57610c5b611802565b604051908082528060200260200182016040528015610cb057816020015b610c9d60405180606001604052806000815260200160008152602001606081525090565b815260200190600190039081610c795790505b5090506000805b8360030154811015610ddd57600081815260048501602052604090205415610dcb578360040160008281526020019081526020016000206040518060600160405290816000820154815260200160018201548152602001600282018054610d1d90611cc0565b80601f0160208091040260200160405190810160405280929190818152602001828054610d4990611cc0565b8015610d965780601f10610d6b57610100808354040283529160200191610d96565b820191906000526020600020905b815481529060010190602001808311610d7957829003601f168201915b505050505081525050838381518110610db157610db1611d16565b60200260200101819052508180610dc790611db8565b9250505b80610dd581611db8565b915050610cb7565b50826000018360010184600201548483805480602002602001604051908101604052809291908181526020018280548015610e4157602002820191906000526020600020905b81546001600160a01b03168152600190910190602001808311610e23575b5050505050935082805480602002602001604051908101604052809291908181526020018280548015610e9d57602002820191906000526020600020905b81546001600160a01b03168152600190910190602001808311610e7f575b5050505050925096509650965096505050509193509193565b83610ec18133611599565b80610ed657506005546001600160a01b031633145b610ef25760405162461bcd60e51b81526004016108c390611dd1565b600085815260026020908152604080832080546001810182558185528385200180546001600160a01b0319166001600160a01b038a16908117909155825160808101845288815280850188905283518086018552868152818501526060810182905290855292849052922081518190610f6b9082611e5f565b506020820151600182015560408201516002820190610f8a9082611e5f565b5060609190910151600391820180546001600160a01b03199081166001600160a01b039384161790915582546001810184556000939093527fc2575a0e9e593c00f959f8c92f12db2869c3395a3b0502d05e2516446f71f85b90920180549092169616959095179094555050505050565b60006020819052908152604090208054819061040090611cc0565b6004818154811061102657600080fd5b6000918252602090912001546001600160a01b0316905081565b60606000825167ffffffffffffffff81111561105e5761105e611802565b604051908082528060200260200182016040528015611087578160200160208202803683370190505b50905060005b83518110156110f557600260008583815181106110ac576110ac611d16565b60200260200101518152602001908152602001600020600201548282815181106110d8576110d8611d16565b6020908102919091010152806110ed81611db8565b91505061108d565b5092915050565b6040516a2837b7b626b0b730b3b2b960a91b6020820152602b01604051602081830303815290604052805190602001208160405160200161113d9190611cfa565b604051602081830303815290604052805190602001200361121e57604080516080810182528581526020808201869052818301859052336060830181905260009081529081905291909120815181906111969082611e5f565b5060208201516001820155604082015160028201906111b59082611e5f565b5060609190910151600391820180546001600160a01b039092166001600160a01b031992831617905581546001810183556000929092527fc2575a0e9e593c00f959f8c92f12db2869c3395a3b0502d05e2516446f71f85b9091018054909116331790556112e1565b604080516080810182528581526020808201869052818301859052336060830181905260009081526001909152919091208151819061125d9082611e5f565b50602082015160018201556040820151600282019061127c9082611e5f565b5060609190910151600390910180546001600160a01b039092166001600160a01b0319928316179055600480546001810182556000919091527f8a35acfbc15ff81a39ae7d344fd709f28e8600b4aa8c65c6b64bfe7fe36bd19b018054909116331790555b50505050565b600081815260026020526040812080549091036113c5576040805160008082526020808301808552868352600290915292902090516113269290611650565b506040805160008082526020808301808552868352600290915292902090516113559260019092019190611650565b50600082815260026020908152604082208054600180820183559184529183209091018054336001600160a01b031991821681179092556003805493840181559093527fc2575a0e9e593c00f959f8c92f12db2869c3395a3b0502d05e2516446f71f85b90910180549092161790555b600082815260026020819052604082200180543492906113e6908490611f32565b90915550505050565b6003818154811061102657600080fd5b600082815260026020526040812082516060929067ffffffffffffffff81111561142b5761142b611802565b604051908082528060200260200182016040528015611454578160200160208202803683370190505b50905060005b84518110156114c45782600401600086838151811061147b5761147b611d16565b60200260200101518152602001908152602001600020600101548282815181106114a7576114a7611d16565b6020908102919091010152806114bc81611db8565b91505061145a565b509150505b92915050565b6001600160a01b03818116600090815260208190526040812060030154606092161561151c57505060408051808201909152600b81526a2837b7b626b0b730b3b2b960a91b602082015291565b6001600160a01b03838116600090815260016020526040902060030154161561156657505060408051808201909152600b81526a21b7b73a3934b13aba37b960a91b602082015291565b5050604080518082019091526013815272155cd95c88191bd95cc81b9bdd08195e1a5cdd606a1b60208201529160009150565b6000828152600260205260408120815b815481101561160857836001600160a01b03168260000182815481106115d1576115d1611d16565b6000918252602090912001546001600160a01b0316036115f6576001925050506114c9565b8061160081611db8565b9150506115a9565b506000949350505050565b50805461161f90611cc0565b6000825580601f1061162f575050565b601f01602090049060005260206000209081019061164d91906116b5565b50565b8280548282559060005260206000209081019282156116a5579160200282015b828111156116a557825182546001600160a01b0319166001600160a01b03909116178255602090920191600190910190611670565b506116b19291506116b5565b5090565b5b808211156116b157600081556001016116b6565b6001600160a01b038116811461164d57600080fd5b6000602082840312156116f157600080fd5b81356116fc816116ca565b9392505050565b60005b8381101561171e578181015183820152602001611706565b50506000910152565b6000815180845261173f816020860160208601611703565b601f01601f19169290920160200192915050565b6080815260006117666080830187611727565b856020840152828103604084015261177e8186611727565b91505060018060a01b038316606083015295945050505050565b60008151608084526117ad6080850182611727565b905060208301516020850152604083015184820360408601526117d08282611727565b6060948501516001600160a01b03169590940194909452509092915050565b6020815260006116fc6020830184611798565b634e487b7160e01b600052604160045260246000fd5b604051601f8201601f1916810167ffffffffffffffff8111828210171561184157611841611802565b604052919050565b600082601f83011261185a57600080fd5b813567ffffffffffffffff81111561187457611874611802565b611887601f8201601f1916602001611818565b81815284602083860101111561189c57600080fd5b816020850160208301376000918101602001919091529392505050565b6000602082840312156118cb57600080fd5b813567ffffffffffffffff8111156118e257600080fd5b6118ee84828501611849565b949350505050565b60008060006060848603121561190b57600080fd5b83359250602084013591506040840135611924816116ca565b809150509250925092565b60008060006060848603121561194457600080fd5b505081359360208301359350604090920135919050565b60006020828403121561196d57600080fd5b5035919050565b600081518084526020808501945080840160005b838110156119ad5781516001600160a01b031687529582019590820190600101611988565b509495945050505050565b6080815260006119cb6080830187611974565b6020838203818501526119de8288611974565b9150604086818601526060858403818701528387518086528486019150848160051b870101858a0160005b83811015611a5057888303601f190185528151805184528881015189850152870151878401879052611a3d87850182611727565b9589019593505090870190600101611a09565b50909d9c50505050505050505050505050565b60008060008060808587031215611a7957600080fd5b843593506020850135611a8b816116ca565b9250604085013567ffffffffffffffff811115611aa757600080fd5b611ab387828801611849565b949793965093946060013593505050565b600082601f830112611ad557600080fd5b8135602067ffffffffffffffff821115611af157611af1611802565b8160051b611b00828201611818565b9283528481018201928281019087851115611b1a57600080fd5b83870192505b84831015611b3957823582529183019190830190611b20565b979650505050505050565b600060208284031215611b5657600080fd5b813567ffffffffffffffff811115611b6d57600080fd5b6118ee84828501611ac4565b6020808252825182820181905260009190848201906040850190845b81811015611bb157835183529284019291840191600101611b95565b50909695505050505050565b60008060008060808587031215611bd357600080fd5b843567ffffffffffffffff80821115611beb57600080fd5b611bf788838901611849565b9550602087013594506040870135915080821115611c1457600080fd5b611c2088838901611849565b93506060870135915080821115611c3657600080fd5b50611c4387828801611849565b91505092959194509250565b60008060408385031215611c6257600080fd5b82359150602083013567ffffffffffffffff811115611c8057600080fd5b611c8c85828601611ac4565b9150509250929050565b604081526000611ca96040830185611727565b905060018060a01b03831660208301529392505050565b600181811c90821680611cd457607f821691505b602082108103611cf457634e487b7160e01b600052602260045260246000fd5b50919050565b60008251611d0c818460208701611703565b9190910192915050565b634e487b7160e01b600052603260045260246000fd5b6000808354611d3a81611cc0565b60018281168015611d525760018114611d6757611d96565b60ff1984168752821515830287019450611d96565b8760005260208060002060005b85811015611d8d5781548a820152908401908201611d74565b50505082870194505b50929695505050505050565b634e487b7160e01b600052601160045260246000fd5b600060018201611dca57611dca611da2565b5060010190565b6020808252600e908201526d139bdd08185d5d1a1bdc9a5e995960921b604082015260600190565b600081611e0857611e08611da2565b506000190190565b601f821115611e5a57600081815260208120601f850160051c81016020861015611e375750805b601f850160051c820191505b81811015611e5657828155600101611e43565b5050505b505050565b815167ffffffffffffffff811115611e7957611e79611802565b611e8d81611e878454611cc0565b84611e10565b602080601f831160018114611ec25760008415611eaa5750858301515b600019600386901b1c1916600185901b178555611e56565b600085815260208120601f198616915b82811015611ef157888601518255948401946001909101908401611ed2565b5085821015611f0f5787850151600019600388901b60f8161c191681555b5050505050600190811b01905550565b818103818111156114c9576114c9611da2565b808201808211156114c9576114c9611da256fea26469706673582212206bbdcc0ea7a7491048c984027450bfe9dfb128186e057b38962b0c36f184fa6164736f6c63430008110033",
  "devdoc": {
    "kind": "dev",
    "methods": {},
    "version": 1
  },
  "userdoc": {
    "kind": "user",
    "methods": {},
    "version": 1
  },
  "storageLayout": {
    "storage": [
      {
        "astId": 47,
        "contract": "contracts/RepoRewards.sol:RepoRewards",
        "label": "poolManagers",
        "offset": 0,
        "slot": "0",
        "type": "t_mapping(t_address,t_struct(PoolManager)10_storage)"
      },
      {
        "astId": 52,
        "contract": "contracts/RepoRewards.sol:RepoRewards",
        "label": "contributors",
        "offset": 0,
        "slot": "1",
        "type": "t_mapping(t_address,t_struct(Contributor)19_storage)"
      },
      {
        "astId": 57,
        "contract": "contracts/RepoRewards.sol:RepoRewards",
        "label": "repositories",
        "offset": 0,
        "slot": "2",
        "type": "t_mapping(t_uint256,t_struct(Repository)42_storage)"
      },
      {
        "astId": 60,
        "contract": "contracts/RepoRewards.sol:RepoRewards",
        "label": "poolManagerAddresses",
        "offset": 0,
        "slot": "3",
        "type": "t_array(t_address)dyn_storage"
      },
      {
        "astId": 63,
        "contract": "contracts/RepoRewards.sol:RepoRewards",
        "label": "contributorAddresses",
        "offset": 0,
        "slot": "4",
        "type": "t_array(t_address)dyn_storage"
      },
      {
        "astId": 65,
        "contract": "contracts/RepoRewards.sol:RepoRewards",
        "label": "admin",
        "offset": 0,
        "slot": "5",
        "type": "t_address"
      }
    ],
    "types": {
      "t_address": {
        "encoding": "inplace",
        "label": "address",
        "numberOfBytes": "20"
      },
      "t_array(t_address)dyn_storage": {
        "base": "t_address",
        "encoding": "dynamic_array",
        "label": "address[]",
        "numberOfBytes": "32"
      },
      "t_mapping(t_address,t_struct(Contributor)19_storage)": {
        "encoding": "mapping",
        "key": "t_address",
        "label": "mapping(address => struct RepoRewards.Contributor)",
        "numberOfBytes": "32",
        "value": "t_struct(Contributor)19_storage"
      },
      "t_mapping(t_address,t_struct(PoolManager)10_storage)": {
        "encoding": "mapping",
        "key": "t_address",
        "label": "mapping(address => struct RepoRewards.PoolManager)",
        "numberOfBytes": "32",
        "value": "t_struct(PoolManager)10_storage"
      },
      "t_mapping(t_uint256,t_struct(Issue)26_storage)": {
        "encoding": "mapping",
        "key": "t_uint256",
        "label": "mapping(uint256 => struct RepoRewards.Issue)",
        "numberOfBytes": "32",
        "value": "t_struct(Issue)26_storage"
      },
      "t_mapping(t_uint256,t_struct(Repository)42_storage)": {
        "encoding": "mapping",
        "key": "t_uint256",
        "label": "mapping(uint256 => struct RepoRewards.Repository)",
        "numberOfBytes": "32",
        "value": "t_struct(Repository)42_storage"
      },
      "t_string_storage": {
        "encoding": "bytes",
        "label": "string",
        "numberOfBytes": "32"
      },
      "t_struct(Contributor)19_storage": {
        "encoding": "inplace",
        "label": "struct RepoRewards.Contributor",
        "members": [
          {
            "astId": 12,
            "contract": "contracts/RepoRewards.sol:RepoRewards",
            "label": "username",
            "offset": 0,
            "slot": "0",
            "type": "t_string_storage"
          },
          {
            "astId": 14,
            "contract": "contracts/RepoRewards.sol:RepoRewards",
            "label": "githubId",
            "offset": 0,
            "slot": "1",
            "type": "t_uint256"
          },
          {
            "astId": 16,
            "contract": "contracts/RepoRewards.sol:RepoRewards",
            "label": "worldId",
            "offset": 0,
            "slot": "2",
            "type": "t_string_storage"
          },
          {
            "astId": 18,
            "contract": "contracts/RepoRewards.sol:RepoRewards",
            "label": "wallet",
            "offset": 0,
            "slot": "3",
            "type": "t_address"
          }
        ],
        "numberOfBytes": "128"
      },
      "t_struct(Issue)26_storage": {
        "encoding": "inplace",
        "label": "struct RepoRewards.Issue",
        "members": [
          {
            "astId": 21,
            "contract": "contracts/RepoRewards.sol:RepoRewards",
            "label": "issueId",
            "offset": 0,
            "slot": "0",
            "type": "t_uint256"
          },
          {
            "astId": 23,
            "contract": "contracts/RepoRewards.sol:RepoRewards",
            "label": "rewardAmount",
            "offset": 0,
            "slot": "1",
            "type": "t_uint256"
          },
          {
            "astId": 25,
            "contract": "contracts/RepoRewards.sol:RepoRewards",
            "label": "status",
            "offset": 0,
            "slot": "2",
            "type": "t_string_storage"
          }
        ],
        "numberOfBytes": "96"
      },
      "t_struct(PoolManager)10_storage": {
        "encoding": "inplace",
        "label": "struct RepoRewards.PoolManager",
        "members": [
          {
            "astId": 3,
            "contract": "contracts/RepoRewards.sol:RepoRewards",
            "label": "username",
            "offset": 0,
            "slot": "0",
            "type": "t_string_storage"
          },
          {
            "astId": 5,
            "contract": "contracts/RepoRewards.sol:RepoRewards",
            "label": "githubId",
            "offset": 0,
            "slot": "1",
            "type": "t_uint256"
          },
          {
            "astId": 7,
            "contract": "contracts/RepoRewards.sol:RepoRewards",
            "label": "worldId",
            "offset": 0,
            "slot": "2",
            "type": "t_string_storage"
          },
          {
            "astId": 9,
            "contract": "contracts/RepoRewards.sol:RepoRewards",
            "label": "wallet",
            "offset": 0,
            "slot": "3",
            "type": "t_address"
          }
        ],
        "numberOfBytes": "128"
      },
      "t_struct(Repository)42_storage": {
        "encoding": "inplace",
        "label": "struct RepoRewards.Repository",
        "members": [
          {
            "astId": 29,
            "contract": "contracts/RepoRewards.sol:RepoRewards",
            "label": "poolManagers",
            "offset": 0,
            "slot": "0",
            "type": "t_array(t_address)dyn_storage"
          },
          {
            "astId": 32,
            "contract": "contracts/RepoRewards.sol:RepoRewards",
            "label": "contributors",
            "offset": 0,
            "slot": "1",
            "type": "t_array(t_address)dyn_storage"
          },
          {
            "astId": 34,
            "contract": "contracts/RepoRewards.sol:RepoRewards",
            "label": "poolRewards",
            "offset": 0,
            "slot": "2",
            "type": "t_uint256"
          },
          {
            "astId": 36,
            "contract": "contracts/RepoRewards.sol:RepoRewards",
            "label": "issueCount",
            "offset": 0,
            "slot": "3",
            "type": "t_uint256"
          },
          {
            "astId": 41,
            "contract": "contracts/RepoRewards.sol:RepoRewards",
            "label": "issueRewards",
            "offset": 0,
            "slot": "4",
            "type": "t_mapping(t_uint256,t_struct(Issue)26_storage)"
          }
        ],
        "numberOfBytes": "160"
      },
      "t_uint256": {
        "encoding": "inplace",
        "label": "uint256",
        "numberOfBytes": "32"
      }
    }
  }
}